{
  "contractName": "Storage",
  "abi": [
    {
      "inputs": [],
      "stateMutability": "nonpayable",
      "type": "constructor"
    },
    {
      "anonymous": false,
      "inputs": [
        {
          "indexed": false,
          "internalType": "address",
          "name": "customer",
          "type": "address"
        },
        {
          "indexed": false,
          "internalType": "uint256",
          "name": "balance",
          "type": "uint256"
        }
      ],
      "name": "Deposit",
      "type": "event"
    },
    {
      "anonymous": false,
      "inputs": [
        {
          "indexed": false,
          "internalType": "address",
          "name": "customer",
          "type": "address"
        }
      ],
      "name": "Ended_contract",
      "type": "event"
    },
    {
      "anonymous": false,
      "inputs": [
        {
          "indexed": false,
          "internalType": "address",
          "name": "customer",
          "type": "address"
        },
        {
          "indexed": false,
          "internalType": "bytes32",
          "name": "filehash",
          "type": "bytes32"
        },
        {
          "indexed": false,
          "internalType": "uint256",
          "name": "filesize",
          "type": "uint256"
        }
      ],
      "name": "File_uploaded",
      "type": "event"
    },
    {
      "anonymous": false,
      "inputs": [
        {
          "indexed": false,
          "internalType": "address",
          "name": "customer",
          "type": "address"
        },
        {
          "indexed": false,
          "internalType": "uint256",
          "name": "balance",
          "type": "uint256"
        }
      ],
      "name": "Provided_proof",
      "type": "event"
    },
    {
      "inputs": [
        {
          "internalType": "address",
          "name": "",
          "type": "address"
        }
      ],
      "name": "customers",
      "outputs": [
        {
          "internalType": "uint256",
          "name": "balance",
          "type": "uint256"
        },
        {
          "internalType": "bytes32",
          "name": "filehash",
          "type": "bytes32"
        },
        {
          "internalType": "uint256",
          "name": "filesize",
          "type": "uint256"
        },
        {
          "internalType": "uint256",
          "name": "last_reward",
          "type": "uint256"
        }
      ],
      "stateMutability": "view",
      "type": "function",
      "constant": true
    },
    {
      "inputs": [
        {
          "internalType": "address",
          "name": "customer",
          "type": "address"
        },
        {
          "internalType": "string",
          "name": "file",
          "type": "string"
        }
      ],
      "name": "provideproof",
      "outputs": [
        {
          "internalType": "bool",
          "name": "",
          "type": "bool"
        }
      ],
      "stateMutability": "nonpayable",
      "type": "function"
    },
    {
      "inputs": [
        {
          "internalType": "address",
          "name": "customer",
          "type": "address"
        },
        {
          "internalType": "string",
          "name": "file",
          "type": "string"
        }
      ],
      "name": "verifyproof",
      "outputs": [
        {
          "internalType": "bool",
          "name": "",
          "type": "bool"
        }
      ],
      "stateMutability": "view",
      "type": "function",
      "constant": true
    },
    {
      "inputs": [
        {
          "internalType": "string",
          "name": "file",
          "type": "string"
        }
      ],
      "name": "uploadfile",
      "outputs": [],
      "stateMutability": "nonpayable",
      "type": "function"
    },
    {
      "inputs": [],
      "name": "deposit",
      "outputs": [],
      "stateMutability": "payable",
      "type": "function",
      "payable": true
    },
    {
      "inputs": [],
      "name": "endcontract",
      "outputs": [],
      "stateMutability": "payable",
      "type": "function",
      "payable": true
    }
  ],
  "bytecode": "0x608060405234801561001057600080fd5b5033600160006101000a81548173ffffffffffffffffffffffffffffffffffffffff021916908373ffffffffffffffffffffffffffffffffffffffff16021790555061109d806100616000396000f3fe6080604052600436106100555760003560e01c8063336989ae1461005a5780635028bce71461009a57806361b5ef33146100d75780638d51da6f146100e1578063d0e30db01461010a578063df8bc96414610114575b600080fd5b34801561006657600080fd5b50610081600480360381019061007c9190610996565b610151565b60405161009194939291906109f5565b60405180910390f35b3480156100a657600080fd5b506100c160048036038101906100bc9190610b80565b610181565b6040516100ce9190610bf7565b60405180910390f35b6100df610253565b005b3480156100ed57600080fd5b5061010860048036038101906101039190610c12565b610375565b005b61011261052f565b005b34801561012057600080fd5b5061013b60048036038101906101369190610b80565b610603565b6040516101489190610bf7565b60405180910390f35b60006020528060005260406000206000915090508060000154908060010154908060020154908060030154905084565b6000816040516020016101949190610cda565b604051602081830303815290604052805190602001206000808573ffffffffffffffffffffffffffffffffffffffff1673ffffffffffffffffffffffffffffffffffffffff1681526020019081526020016000206001015414801561023a575081516000808573ffffffffffffffffffffffffffffffffffffffff1673ffffffffffffffffffffffffffffffffffffffff16815260200190815260200160002060020154145b15610248576001905061024d565b600090505b92915050565b3373ffffffffffffffffffffffffffffffffffffffff166108fc6000803373ffffffffffffffffffffffffffffffffffffffff1673ffffffffffffffffffffffffffffffffffffffff168152602001908152602001600020600001549081150290604051600060405180830381858888f193505050501580156102da573d6000803e3d6000fd5b506000803373ffffffffffffffffffffffffffffffffffffffff1673ffffffffffffffffffffffffffffffffffffffff16815260200190815260200160002060008082016000905560018201600090556002820160009055600382016000905550507f3cbff9a27baa996e524016a904533b9639c11cb664aac2f701802a4c105616d83360405161036b9190610d0b565b60405180910390a1565b806040516020016103869190610cda565b604051602081830303815290604052805190602001206000803373ffffffffffffffffffffffffffffffffffffffff1673ffffffffffffffffffffffffffffffffffffffff1681526020019081526020016000206001018190555080516000803373ffffffffffffffffffffffffffffffffffffffff1673ffffffffffffffffffffffffffffffffffffffff1681526020019081526020016000206002018190555060008060003373ffffffffffffffffffffffffffffffffffffffff1673ffffffffffffffffffffffffffffffffffffffff168152602001908152602001600020600301819055507f4ecb8445e1047fe34115cffdefddb6b4ccb3aa3e213a781ed42f29fb08a31089336000803373ffffffffffffffffffffffffffffffffffffffff1673ffffffffffffffffffffffffffffffffffffffff168152602001908152602001600020600101546000803373ffffffffffffffffffffffffffffffffffffffff1673ffffffffffffffffffffffffffffffffffffffff1681526020019081526020016000206002015460405161052493929190610d26565b60405180910390a150565b346000803373ffffffffffffffffffffffffffffffffffffffff1673ffffffffffffffffffffffffffffffffffffffff16815260200190815260200160002060000160008282546105809190610d8c565b925050819055507fe1fffcc4923d04b559f4d29a8bfc6cda04eb5b0d3c460751c2402c5c5cc9109c336000803373ffffffffffffffffffffffffffffffffffffffff1673ffffffffffffffffffffffffffffffffffffffff168152602001908152602001600020600001546040516105f9929190610dc0565b60405180910390a1565b6000600160009054906101000a900473ffffffffffffffffffffffffffffffffffffffff1673ffffffffffffffffffffffffffffffffffffffff163373ffffffffffffffffffffffffffffffffffffffff1614610695576040517f08c379a000000000000000000000000000000000000000000000000000000000815260040161068c90610e5b565b60405180910390fd5b61069f8383610181565b6106de576040517f08c379a00000000000000000000000000000000000000000000000000000000081526004016106d590610ec7565b60405180910390fd5b600060059050806000803373ffffffffffffffffffffffffffffffffffffffff1673ffffffffffffffffffffffffffffffffffffffff168152602001908152602001600020600301546107319190610d8c565b4311610772576040517f08c379a000000000000000000000000000000000000000000000000000000000815260040161076990610f59565b60405180910390fd5b80814361077f9190610fa8565b6107899190610fd9565b6000803373ffffffffffffffffffffffffffffffffffffffff1673ffffffffffffffffffffffffffffffffffffffff16815260200190815260200160002060030181905550671bc16d674ec800006000808673ffffffffffffffffffffffffffffffffffffffff1673ffffffffffffffffffffffffffffffffffffffff16815260200190815260200160002060000160008282546108279190611033565b92505081905550600160009054906101000a900473ffffffffffffffffffffffffffffffffffffffff1673ffffffffffffffffffffffffffffffffffffffff166108fc671bc16d674ec800009081150290604051600060405180830381858888f1935050505015801561089e573d6000803e3d6000fd5b507f5c7b0965992b2a7eb3c97e64fd8ce505d3445e08a48c8c7e655d80589a973f31846000803373ffffffffffffffffffffffffffffffffffffffff1673ffffffffffffffffffffffffffffffffffffffff16815260200190815260200160002060000154604051610911929190610dc0565b60405180910390a1600191505092915050565b6000604051905090565b600080fd5b600080fd5b600073ffffffffffffffffffffffffffffffffffffffff82169050919050565b600061096382610938565b9050919050565b61097381610958565b811461097e57600080fd5b50565b6000813590506109908161096a565b92915050565b6000602082840312156109ac576109ab61092e565b5b60006109ba84828501610981565b91505092915050565b6000819050919050565b6109d6816109c3565b82525050565b6000819050919050565b6109ef816109dc565b82525050565b6000608082019050610a0a60008301876109cd565b610a1760208301866109e6565b610a2460408301856109cd565b610a3160608301846109cd565b95945050505050565b600080fd5b600080fd5b6000601f19601f8301169050919050565b7f4e487b7100000000000000000000000000000000000000000000000000000000600052604160045260246000fd5b610a8d82610a44565b810181811067ffffffffffffffff82111715610aac57610aab610a55565b5b80604052505050565b6000610abf610924565b9050610acb8282610a84565b919050565b600067ffffffffffffffff821115610aeb57610aea610a55565b5b610af482610a44565b9050602081019050919050565b82818337600083830152505050565b6000610b23610b1e84610ad0565b610ab5565b905082815260208101848484011115610b3f57610b3e610a3f565b5b610b4a848285610b01565b509392505050565b600082601f830112610b6757610b66610a3a565b5b8135610b77848260208601610b10565b91505092915050565b60008060408385031215610b9757610b9661092e565b5b6000610ba585828601610981565b925050602083013567ffffffffffffffff811115610bc657610bc5610933565b5b610bd285828601610b52565b9150509250929050565b60008115159050919050565b610bf181610bdc565b82525050565b6000602082019050610c0c6000830184610be8565b92915050565b600060208284031215610c2857610c2761092e565b5b600082013567ffffffffffffffff811115610c4657610c45610933565b5b610c5284828501610b52565b91505092915050565b600081519050919050565b600082825260208201905092915050565b60005b83811015610c95578082015181840152602081019050610c7a565b60008484015250505050565b6000610cac82610c5b565b610cb68185610c66565b9350610cc6818560208601610c77565b610ccf81610a44565b840191505092915050565b60006020820190508181036000830152610cf48184610ca1565b905092915050565b610d0581610958565b82525050565b6000602082019050610d206000830184610cfc565b92915050565b6000606082019050610d3b6000830186610cfc565b610d4860208301856109e6565b610d5560408301846109cd565b949350505050565b7f4e487b7100000000000000000000000000000000000000000000000000000000600052601160045260246000fd5b6000610d97826109c3565b9150610da2836109c3565b9250828201905080821115610dba57610db9610d5d565b5b92915050565b6000604082019050610dd56000830185610cfc565b610de260208301846109cd565b9392505050565b7f546869732066756e6374696f6e2063616e206f6e6c792062652075736564206260008201527f7920746865207365727665720000000000000000000000000000000000000000602082015250565b6000610e45602c83610c66565b9150610e5082610de9565b604082019050919050565b60006020820190508181036000830152610e7481610e38565b9050919050565b7f496e636f72726563742070726f6f662070726f76696465640000000000000000600082015250565b6000610eb1601883610c66565b9150610ebc82610e7b565b602082019050919050565b60006020820190508181036000830152610ee081610ea4565b9050919050565b7f4e6f7420656e6f7567682074696d6520686173207061737365642073696e636560008201527f206c617374207061796f75740000000000000000000000000000000000000000602082015250565b6000610f43602c83610c66565b9150610f4e82610ee7565b604082019050919050565b60006020820190508181036000830152610f7281610f36565b9050919050565b7f4e487b7100000000000000000000000000000000000000000000000000000000600052601260045260246000fd5b6000610fb3826109c3565b9150610fbe836109c3565b925082610fce57610fcd610f79565b5b828204905092915050565b6000610fe4826109c3565b9150610fef836109c3565b9250817fffffffffffffffffffffffffffffffffffffffffffffffffffffffffffffffff048311821515161561102857611027610d5d565b5b828202905092915050565b600061103e826109c3565b9150611049836109c3565b925082820390508181111561106157611060610d5d565b5b9291505056fea26469706673582212207883970244fdc6b9fa1949396cdc71a3b651e2a7499840bad604e3a72a7dc0fc64736f6c63430008100033",
  "immutableReferences": {},
  "source": "// SPDX-License-Identifier: MIT\r\npragma solidity ^0.8.13;\r\n\r\ncontract Storage {\r\n    struct Customer {\r\n        uint balance;\r\n        bytes32 filehash; \r\n        uint filesize;\r\n        uint last_reward;\r\n    }\r\n\r\n    mapping(address => Customer) public customers;   // Customer information\r\n    address private server;\r\n\r\n    // Constructor when setting up contract\r\n    constructor() {\r\n        server = payable(msg.sender);\r\n    }\r\n\r\n    // Events\r\n    event Deposit(address customer, uint balance);\r\n    event Provided_proof(address customer, uint balance);\r\n    event File_uploaded(address customer, bytes32 filehash, uint filesize);\r\n    event Ended_contract(address customer);\r\n\r\n    // Helper functions\r\n\r\n    // For server to execute and receive payment\r\n    function provideproof(address customer, string memory file) public returns(bool) {\r\n        require(msg.sender == server, \"This function can only be used by the server\");\r\n        require(verifyproof(customer, file), \"Incorrect proof provided\");\r\n        uint interval = 5;\r\n        require(block.number > customers[msg.sender].last_reward + interval, \"Not enough time has passed since last payout\");\r\n        customers[msg.sender].last_reward = block.number/interval*interval;\r\n        customers[customer].balance -= 2 ether;\r\n        payable(server).transfer(2 ether);\r\n        emit Provided_proof(customer, customers[msg.sender].balance);\r\n        return true;\r\n    }\r\n\r\n    function verifyproof(address customer, string memory file) public view returns (bool){ \r\n        if (customers[customer].filehash == keccak256(abi.encode(file)) && customers[customer].filesize == bytes(file).length) {\r\n            return true;\r\n        }\r\n       return false;\r\n    }\r\n\r\n    // Client functions\r\n    function uploadfile(string memory file) public {\r\n        // Store hash of filehash in blockchain\r\n        // Actual function will not require filesize parameter\r\n        customers[msg.sender].filehash = keccak256(abi.encode(file));\r\n        customers[msg.sender].filesize = bytes(file).length;\r\n        customers[msg.sender].last_reward = 0;\r\n        emit File_uploaded(msg.sender, customers[msg.sender].filehash, customers[msg.sender].filesize);\r\n    }\r\n\r\n    function deposit() public payable {\r\n        customers[msg.sender].balance += msg.value;     // adjust the customer's balance\r\n        emit Deposit(msg.sender, customers[msg.sender].balance);\r\n    }\r\n\r\n    function endcontract() public payable {\r\n        payable(msg.sender).transfer(customers[msg.sender].balance);\r\n        delete customers[msg.sender];\r\n        emit Ended_contract(msg.sender);\r\n    }\r\n}",
  "sourcePath": "C:\\Users\\Admin\\OneDrive - Singapore University of Technology and Design\\STL2\\project\\v0\\simple-storage\\contracts\\Storage.sol",
  "compiler": {
    "name": "solc",
    "version": "0.8.16+commit.07a7930e.Emscripten.clang"
  },
  "schemaVersion": "3.4.9",
  "updatedAt": "2022-08-23T02:01:39.101Z",
  "networkType": "ethereum",
  "devdoc": {
    "kind": "dev",
    "methods": {},
    "version": 1
  },
  "userdoc": {
    "kind": "user",
    "methods": {},
    "version": 1
  }
}